:100000000C942A000C943F000C943F000C943F0089
:100010000C943F000C943F000C943F000C943F0064
:100020000C943F000C943F000C943F000C943F0054
:100030000C943F000C943F000C943F000C943F0044
:100040000C943F000C943F000C943F000C943F0034
:100050000C943F0011241FBECFE5D8E0DEBFCDBF1A
:1000600010E0A0E6B0E0E8EAF4E502C005900D92E9
:10007000A43CB107D9F70E9499140C94522A0C940D
:100080000000EF92FF920F931F937B018C0120E001
:1000900030E040E05FE40E94710388238CF0C801E7
:1000A000B70120E030E040E05FE40E94B9010E9427
:1000B000D1039B01AC01205030404040504806C065
:1000C000C801B7010E94D1039B01AC01B901CA016B
:1000D0001F910F91FF90EF900895A0E0B0E0E3E74B
:1000E000F0E00C941B2ADC012B01FA019C91923068
:1000F00008F439C1EB018881823008F433C19430AF
:1001000069F4843009F02FC111969C91119789816F
:10011000981709F428C1A0EAB0E025C1843009F499
:1001200021C18230A9F4923009F01DC19A01AD01BC
:1001300088E0EA010990AE01E90109929E0181502F
:10014000C1F7E201898111969C918923818308C1BD
:10015000923009F407C112962D903C901397EB0151
:100160008A819B811496AD90BD90CD90DC901797BD
:10017000EC80FD800E811F819101281B390BB90194
:1001800037FF04C066277727621B730B6032710547
:100190000CF061C0121613066CF537014801062EEB
:1001A00004C096948794779467940A94D2F721E0D8
:1001B00030E040E050E004C0220F331F441F551FC1
:1001C0006A95D2F721503040404050402E213F21C7
:1001D00040235123211531054105510521F021E02E
:1001E00030E040E050E079018A01E628F72808294C
:1001F00019293CC0232BD1F1260E371E35014601AB
:10020000062E04C096948794779467940A94D2F744
:1002100021E030E040E050E004C0220F331F441FD3
:10022000551F6A95D2F721503040404050402A2156
:100230003B214C215D21211531054105510521F05E
:1002400021E030E040E050E059016A01A628B728DB
:10025000C828D9280BC0821593052CF01C01AA24AC
:10026000BB24650103C0EE24FF24870111969C91F5
:10027000D20111968C91981709F445C0992339F051
:10028000A80197012A193B094C095D0906C0A6017E
:1002900095012E193F09400B510B57FD08C01182E3
:1002A0003382228224833583468357831DC081E0B5
:1002B00081833382228288279927DC01821B930B5A
:1002C000A40BB50B84839583A683B7830DC0220F3F
:1002D000331F441F551F24833583468357838281F0
:1002E000938101979383828324813581468157814D
:1002F000DA01C9010197A109B1098F5F9F4FAF4F83
:10030000BF4328F30BC0918333822282EA0CFB1C8B
:100310000C1D1D1DE482F5820683178383E0808314
:10032000248135814681578157FF1AC0C901AA2708
:1003300097FDA095BA2F81709070A070B0705695FF
:10034000479537952795822B932BA42BB52B848328
:100350009583A683B7838281938101969383828359
:10036000DF0101C0D201CD01CDB7DEB7E2E10C94CF
:10037000372AA0E2B0E0EFEBF1E00C94272A698382
:100380007A838B839C832D833E834F835887E9E058
:10039000EE2EF12CEC0EFD1ECE010196B7010E944F
:1003A000FA048E010F5E1F4FCE010596B8010E9420
:1003B000FA048A8991E089278A8BC701B801AE01C6
:1003C000475E5F4F0E946D000E942504A096E6E004
:1003D0000C94432AA0E2B0E0E0EFF1E00C94272A6D
:1003E00069837A838B839C832D833E834F835887D5
:1003F000F9E0EF2EF12CEC0EFD1ECE010196B701B7
:100400000E94FA048E010F5E1F4FCE010596B801BF
:100410000E94FA04C701B801AE01475E5F4F0E9417
:100420006D000E942504A096E6E00C94432AA0E209
:10043000B0E0EDE1F2E00C941B2A69837A838B83B0
:100440009C832D833E834F835887CE010196BE0146
:10045000675F7F4F0E94FA04CE010596BE016F5E72
:100460007F4F0E94FA049985923088F08989823002
:10047000C8F0943019F4823051F404C0843029F467
:10048000923081F480EA90E0C6C0923049F420E0D6
:100490009A858A89981321E02A87CE010996BBC0E4
:1004A000823049F420E09A858A89981321E02A8BCA
:1004B000CE014196B0C02D843E844F8458886D880B
:1004C0007E888F88988CEE24FF248701AA24BB2481
:1004D000650140E050E060E070E0E0E0F0E0C10184
:1004E00081709070892BE9F0E60CF71C081D191D2E
:1004F0009A01AB012A0D3B1D4C1D5D1D80E090E073
:10050000A0E0B0E0E614F7040805190520F481E046
:1005100090E0A0E0B0E0BA01A901480F591F6A1F9E
:100520007B1FAA0CBB1CCC1CDD1C97FE08C081E005
:1005300090E0A0E0B0E0A82AB92ACA2ADB2A3196C6
:10054000E032F10549F0660C771C881C991C569422
:10055000479437942794C3CFFA85EA892B893C893D
:100560008B859C85280F391F2E5F3F4F17C0CA010E
:1005700081709070892B61F016950795F794E79438
:1005800080E090E0A0E0B0E8E82AF92A0A2B1B2BD3
:1005900076956795579547952F5F3F4F77FDE7CF46
:1005A0000CC0440F551F661F771F17FD4160EE0CEE
:1005B000FF1C001F111F21503040403090E05907B0
:1005C00090E0690790E4790760F32B8F3C8FDB01A3
:1005D000CA018F779070A070B07080349105A1052A
:1005E000B10561F447FD0AC0E114F10401051105EC
:1005F00029F0405C5F4F6F4F7F4F40781A8EFE1797
:1006000011F081E08A8F4D8F5E8F6F8F78A383E02A
:10061000898FCE0149960E942504A096E2E10C94B0
:10062000372AA8E1B0E0E7E1F3E00C94272A6983D8
:100630007A838B839C832D833E834F83588789E005
:10064000E82EF12CEC0EFD1ECE010196B7010E94A2
:10065000FA048E010F5E1F4FCE010596B8010E946D
:10066000FA048985823040F08989823028F0C701F8
:10067000B8010E94720501C081E06896E6E00C9422
:10068000432AA8E1B0E0E7E4F3E00C94272A698369
:100690007A838B839C832D833E834F83588789E0A5
:1006A000E82EF12CEC0EFD1ECE010196B7010E9442
:1006B000FA048E010F5E1F4FCE010596B8010E940D
:1006C000FA048985823040F08989823028F0C70198
:1006D000B8010E94720501C08FEF6896E6E00C94A5
:1006E000432AA8E1B0E0E7E7F3E00C94272A698306
:1006F0007A838B839C832D833E834F83588789E045
:10070000E82EF12CEC0EFD1ECE010196B7010E94E1
:10071000FA048E010F5E1F4FCE010596B8010E94AC
:10072000FA048985823040F08989823028F0C70137
:10073000B8010E94720501C08FEF6896E6E00C9444
:10074000432AA8E1B0E0E7EAF3E00C94272A6983A2
:100750007A838B839C832D833E834F83588789E0E4
:10076000E82EF12CEC0EFD1ECE010196B7010E9481
:10077000FA048E010F5E1F4FCE010596B8010E944C
:10078000FA048985823040F08989823028F0C701D7
:10079000B8010E94720501C081E06896E6E00C9401
:1007A000432AACE0B0E0E7EDF3E00C942B2A698338
:1007B0007A838B839C83CE010196BE016B5F7F4F52
:1007C0000E94FA048D81823061F1823050F18430D0
:1007D00021F48E81882351F12EC02F81388537FD79
:1007E00020C06E812F3131051CF06623F9F023C043
:1007F0008EE190E0821B930B29853A854B855C85C1
:1008000004C056954795379527958A95D2F7662364
:10081000B1F050954095309521953F4F4F4F5F4F28
:100820000EC020E030E040E050E009C02FEF3FEF85
:100830004FEF5FE704C020E030E040E050E8B9014E
:10084000CA012C96E2E00C94472ADF92EF92FF92C5
:100850000F931F93FC01E480F58006811781D180FE
:100860008081823048F480E090E0A0E1B0E0E82AA6
:10087000F92A0A2B1B2BA5C0843009F49FC08230B3
:1008800021F4EE24FF24870105C0E114F1040105E1
:10089000110519F4E0E0F0E096C0628173819FEFEA
:1008A000623879070CF05BC022E83FEF261B370B5C
:1008B0002A3131052CF020E030E040E050E02AC041
:1008C000B801A701022E04C0769567955795479504
:1008D0000A94D2F781E090E0A0E0B0E004C0880F75
:1008E000991FAA1FBB1F2A95D2F70197A109B10929
:1008F0008E219F21A023B1230097A105B10521F0EE
:1009000081E090E0A0E0B0E09A01AB01282B392B08
:100910004A2B5B2BDA01C9018F779070A070B07001
:1009200080349105A105B10539F427FF09C0205C89
:100930003F4F4F4F5F4F04C0215C3F4F4F4F5F4FC2
:10094000E0E0F0E02030A0E03A07A0E04A07A0E4B1
:100950005A0710F0E1E0F0E079018A0127C0603821
:10096000710564F5FB01E158FF4FD801C7018F778E
:100970009070A070B07080349105A105B10539F474
:10098000E7FE0DC080E490E0A0E0B0E004C08FE39B
:1009900090E0A0E0B0E0E80EF91E0A1F1B1F17FF51
:1009A00005C016950795F794E794319687E016955C
:1009B0000795F794E7948A95D1F705C0EE24FF24B4
:1009C0008701EFEFF0E06E2F679566276795902F10
:1009D0009F77D794DD24D7948E2F8695492F462B69
:1009E000582F5D29B701CA011F910F91FF90EF9019
:1009F000DF900895FC01DB01408151812281622F4B
:100A00006F7770E0221F2227221F9381892F880F82
:100A1000822B282F30E0991F9927991F11969C93BC
:100A2000119721153105A9F541155105610571058C
:100A300011F482E037C082E89FEF13969C938E9367
:100A400012979A01AB0167E0220F331F441F551F15
:100A50006A95D1F783E08C930DC0220F331F441F9A
:100A6000551F12968D919C911397019713969C9305
:100A70008E931297203080E0380780E0480780E4AA
:100A8000580758F314962D933D934D935C93179705
:100A900008952F3F310579F4411551056105710520
:100AA00019F484E08C93089564FF03C081E08C9373
:100AB00012C01C9210C02F57304013963C932E93B7
:100AC000129783E08C9387E0440F551F661F771FB2
:100AD0008A95D1F7706414964D935D936D937C93D2
:100AE000179708951F93DC01FB019C91923008F445
:100AF00047C08081823008F443C0943051F411968D
:100B00001C91843099F58181682F70E0611B710917
:100B10003FC0843021F0923031F48230B9F18181CC
:100B2000882389F12DC011961C9111978230F1F024
:100B300081811817D9F412962D913C9113978281D7
:100B400093818217930794F028173907BCF0149605
:100B50008D919D910D90BC91A02D24813581468170
:100B60005781281739074A075B0718F4112341F00A
:100B70000AC082179307A407B50740F4112319F0A0
:100B800061E070E005C06FEF7FEF02C060E070E0F1
:100B9000CB011F910895DF93CF93CDB7DEB7279791
:100BA0000FB6F894DEBF0FBECDBF89836A834B8337
:100BB0008981843008F0EEC08A81883008F0EAC06C
:100BC0008B81813009F06FC08981282F30E03F830D
:100BD0002E838E819F818130910549F12E813F8145
:100BE000223031052CF48E819F81009761F0D2C0B4
:100BF0002E813F812230310571F18E819F818330BA
:100C00009105E9F1C7C0AAE3B0E0EAE3F0E0808132
:100C1000482F8A81282F30E081E090E0022E02C028
:100C2000880F991F0A94E2F7842B8C93B3C0A7E333
:100C3000B0E0E7E3F0E08081482F8A81282F30E0A0
:100C400081E090E0022E02C0880F991F0A94E2F71B
:100C5000842B8C939FC0A4E3B0E0E4E3F0E08081B8
:100C6000482F8A81282F30E081E090E0022E02C0D8
:100C7000880F991F0A94E2F7842B8C938BC0A1E311
:100C8000B0E0E1E3F0E08081482F8A81282F30E056
:100C900081E090E0022E02C0880F991F0A94E2F7CB
:100CA000842B8C9377C08B81882309F073C0898152
:100CB000282F30E03D832C838C819D8181309105EC
:100CC00059F12C813D81223031052CF48C819D819C
:100CD000009769F05FC02C813D812230310589F198
:100CE0008C819D818330910509F440C053C0AAE3F3
:100CF000B0E0EAE3F0E08081482F8A81282F30E0DD
:100D000081E090E0022E02C0880F991F0A94E2F75A
:100D1000809584238C933EC0A7E3B0E0E7E3F0E046
:100D20008081482F8A81282F30E081E090E0022ED8
:100D300002C0880F991F0A94E2F7809584238C9350
:100D400029C0A4E3B0E0E4E3F0E08081482F8A8189
:100D5000282F30E081E090E0022E02C0880F991F1A
:100D60000A94E2F7809584238C9314C0A1E3B0E049
:100D7000E1E3F0E08081482F8A81282F30E081E094
:100D800090E0022E02C0880F991F0A94E2F7809526
:100D900084238C9327960FB6F894DEBF0FBECDBF89
:100DA000CF91DF910895DF93CF93CDB7DEB727972B
:100DB0000FB6F894DEBF0FBECDBF89836A834B8325
:100DC0008B81813009F06FC08981282F30E03F830B
:100DD0002E838E819F818130910549F12E813F8143
:100DE000223031052CF48E819F81009761F0D2C0B2
:100DF0002E813F812230310571F18E819F818330B8
:100E00009105E9F1C7C0ABE3B0E0EBE3F0E080812E
:100E1000482F8A81282F30E081E090E0022E02C026
:100E2000880F991F0A94E2F7842B8C93B3C0A8E330
:100E3000B0E0E8E3F0E08081482F8A81282F30E09D
:100E400081E090E0022E02C0880F991F0A94E2F719
:100E5000842B8C939FC0A5E3B0E0E5E3F0E08081B4
:100E6000482F8A81282F30E081E090E0022E02C0D6
:100E7000880F991F0A94E2F7842B8C938BC0A2E30E
:100E8000B0E0E2E3F0E08081482F8A81282F30E053
:100E900081E090E0022E02C0880F991F0A94E2F7C9
:100EA000842B8C9377C08B81882309F073C0898150
:100EB000282F30E03D832C838C819D8181309105EA
:100EC00059F12C813D81223031052CF48C819D819A
:100ED000009769F05FC02C813D812230310589F196
:100EE0008C819D818330910509F440C053C0ABE3F0
:100EF000B0E0EBE3F0E08081482F8A81282F30E0DA
:100F000081E090E0022E02C0880F991F0A94E2F758
:100F1000809584238C933EC0A8E3B0E0E8E3F0E042
:100F20008081482F8A81282F30E081E090E0022ED6
:100F300002C0880F991F0A94E2F7809584238C934E
:100F400029C0A5E3B0E0E5E3F0E08081482F8A8185
:100F5000282F30E081E090E0022E02C0880F991F18
:100F60000A94E2F7809584238C9314C0A2E3B0E046
:100F7000E2E3F0E08081482F8A81282F30E081E091
:100F800090E0022E02C0880F991F0A94E2F7809524
:100F900084238C9327960FB6F894DEBF0FBECDBF87
:100FA000CF91DF910895DF93CF9300D000D0CDB7DC
:100FB000DEB789836A838981282F30E03C832B83C5
:100FC0008B819C818130910559F12B813C812230AC
:100FD00031052CF48B819C81009769F05FC02B81D7
:100FE0003C812230310589F18B819C8183309105D0
:100FF00009F440C053C0ABE3B0E0EBE3F0E0808124
:10100000482F8A81282F30E081E090E0022E02C034
:10101000880F991F0A94E2F7809584238C933EC031
:10102000A8E3B0E0E8E3F0E08081482F8A81282F30
:1010300030E081E090E0022E02C0880F991F0A94F0
:10104000E2F7809584238C9329C0A5E3B0E0E5E323
:10105000F0E08081482F8A81282F30E081E090E005
:10106000022E02C0880F991F0A94E2F7809584230C
:101070008C9314C0A2E3B0E0E2E3F0E08081482F5B
:101080008A81282F30E081E090E0022E02C0880F94
:10109000991F0A94E2F7809584238C930F900F9008
:1010A0000F900F90CF91DF910895DF93CF9300D0F1
:1010B00000D000D0CDB7DEB789836A835C834B83D1
:1010C0008981282F30E03E832D834D815E81413020
:1010D0005105C1F18D819E818230910534F42D81BD
:1010E0003E812115310571F08CC04D815E81423009
:1010F000510509F447C08D819E818330910509F423
:1011000061C07FC0E9E3F0E08081482F50E08A8130
:10111000282F30E081E090E002C0880F991F2A95C7
:10112000E2F79A01282339238A81882F90E0A901C8
:1011300002C0559547958A95E2F7CA01EB81FC817B
:1011400080835FC0E6E3F0E08081482F50E08A8131
:10115000282F30E081E090E002C0880F991F2A9587
:10116000E2F79A01282339238A81882F90E0A90188
:1011700002C0559547958A95E2F7CA01EB81FC813B
:1011800080833FC0E3E3F0E08081482F50E08A8114
:10119000282F30E081E090E002C0880F991F2A9547
:1011A000E2F79A01282339238A81882F90E0A90148
:1011B00002C0559547958A95E2F7CA01EB81FC81FB
:1011C00080831FC0E0E3F0E08081482F50E08A81F7
:1011D000282F30E081E090E002C0880F991F2A9507
:1011E000E2F79A01282339238A81882F90E0A90108
:1011F00002C0559547958A95E2F7CA01EB81FC81BB
:10120000808326960FB6F894DEBF0FBECDBFCF9178
:10121000DF910895DF93CF9300D000D0CDB7DEB734
:1012200089836A838981282F30E03C832B838B81DB
:101230009C818130910549F12B813C81223031051F
:101240002CF48B819C81009761F05AC02B813C81EA
:101250002230310571F18B819C8183309105E9F158
:101260004FC0ABE3B0E0EBE3F0E08081482F8A8130
:10127000282F30E081E090E0022E02C0880F991FF5
:101280000A94E2F784278C933BC0A8E3B0E0E8E33C
:10129000F0E08081482F8A81282F30E081E090E0C3
:1012A000022E02C0880F991F0A94E2F784278C93BC
:1012B00027C0A5E3B0E0E5E3F0E08081482F8A8114
:1012C000282F30E081E090E0022E02C0880F991FA5
:1012D0000A94E2F784278C9313C0A2E3B0E0E2E320
:1012E000F0E08081482F8A81282F30E081E090E073
:1012F000022E02C0880F991F0A94E2F784278C936C
:101300000F900F900F900F90CF91DF910895DF9382
:10131000CF9300D000D0CDB7DEB789836A838981AF
:10132000282F30E03C832B838B819C818130910579
:10133000D1F02B813C81223031052CF48B819C81B2
:10134000009761F01EC02B813C812230310581F075
:101350008B819C818330910581F013C0EAE3F0E03A
:101360008A8180830EC0E7E3F0E08A81808309C030
:10137000E4E3F0E08A81808304C0E1E3F0E08A8165
:1013800080830F900F900F900F90CF91DF91089571
:10139000DF93CF9300D000D0CDB7DEB789836A83C7
:1013A0008981282F30E03C832B838B819C81813085
:1013B0009105D1F02B813C81223031052CF48B81B9
:1013C0009C81009761F01EC02B813C812230310549
:1013D00081F08B819C818330910581F013C0EBE318
:1013E000F0E08A8180830EC0E8E3F0E08A818083A8
:1013F00009C0E5E3F0E08A81808304C0E2E3F0E025
:101400008A8180830F900F900F900F90CF91DF9182
:101410000895DF93CF9300D00F92CDB7DEB78983C5
:101420008981282F30E03B832A838A819B81813008
:101430009105C9F02A813B81223031052CF48A8143
:101440009B81009761F01AC02A813B8122303105CF
:1014500071F08A819B818330910569F00FC0EBE3C5
:10146000F0E010820BC0E8E3F0E0108207C0E5E393
:10147000F0E0108203C0E2E3F0E010820F900F90E2
:101480000F90CF91DF910895DF93CF9300D000D0DC
:101490000F92CDB7DEB789837B836A838981282F3A
:1014A00030E03D832C838C819D8181309105E1F07A
:1014B0002C813D81223031052CF48C819D81009757
:1014C00061F026C02C813D8122303105A1F08C8154
:1014D0009D8183309105B1F01BC0E9E3F0E080818C
:1014E000EA81FB81808314C0E6E3F0E08081EA8139
:1014F000FB8180830DC0E3E3F0E08081EA81FB8122
:10150000808306C0E0E3F0E08081EA81FB81808394
:101510000F900F900F900F900F90CF91DF91089543
:10152000DF93CF9300D00F92CDB7DEB78983898147
:10153000282F30E03B832A838A819B81813091056B
:10154000E9F02A813B81223031052CF48A819B818C
:10155000009761F02AC02A813B8122303105B1F029
:101560008A819B8183309105C9F01FC0ABE3B0E055
:10157000EBE3F0E0808180958C9317C0A8E3B0E0A6
:10158000E8E3F0E0808180958C930FC0A5E3B0E0A4
:10159000E5E3F0E0808180958C9307C0A2E3B0E0A2
:1015A000E2E3F0E0808180958C930F900F900F9094
:1015B000CF91DF910895DF93CF9300D000D0CDB7C6
:1015C000DEB789836A838981282F30E03C832B83AF
:1015D0008B819C818130910529F12B813C812230C6
:1015E00031052CF48B819C81009761F04AC02B81DE
:1015F0003C812230310531F18B819C818330910512
:1016000089F13FC0ABE3B0E0EBE3F0E080818F70A5
:101610008C93ABE3B0E0EBE3F0E090818A81892B1F
:101620008C932FC0A8E3B0E0E8E3F0E080818F70F6
:101630008C93A8E3B0E0E8E3F0E090818A81892B05
:101640008C931FC0A5E3B0E0E5E3F0E080818F70EC
:101650008C93A5E3B0E0E5E3F0E090818A81892BEB
:101660008C930FC0A2E3B0E0E2E3F0E080818F70E2
:101670008C93A2E3B0E0E2E3F0E090818A81892BD1
:101680008C930F900F900F900F90CF91DF91089552
:10169000DF93CF9300D000D0CDB7DEB789836A83C4
:1016A0008981282F30E03C832B838B819C81813082
:1016B000910529F12B813C81223031052CF48B815D
:1016C0009C81009761F04AC02B813C81223031051A
:1016D00031F18B819C818330910589F13FC0ABE36F
:1016E000B0E0EBE3F0E08081807F8C93ABE3B0E08F
:1016F000EBE3F0E090818A81892B8C932FC0A8E3E3
:10170000B0E0E8E3F0E08081807F8C93A8E3B0E074
:10171000E8E3F0E090818A81892B8C931FC0A5E3D8
:10172000B0E0E5E3F0E08081807F8C93A5E3B0E05A
:10173000E5E3F0E090818A81892B8C930FC0A2E3CE
:10174000B0E0E2E3F0E08081807F8C93A2E3B0E040
:10175000E2E3F0E090818A81892B8C930F900F90C7
:101760000F900F90CF91DF910895DF93CF9300D02A
:101770000F92CDB7DEB769837A838B8389819A8193
:101780002B81692F422F0E94CB050F900F900F9055
:10179000CF91DF910895DF93CF9300D00F92CDB713
:1017A000DEB769837A838B8389819A812B81692F44
:1017B000422F0E94D3060F900F900F90CF91DF9190
:1017C0000895DF93CF9300D00F92CDB7DEB7698332
:1017D0007A838B8389819A81692F40E00E94D306A6
:1017E0000F900F900F90CF91DF910895DF93CF93DB
:1017F00000D00F92CDB7DEB769837A838B8389815E
:101800009A81692F0E940A090F900F900F90CF9133
:10181000DF910895DF93CF93CDB7DEB783E060E02B
:1018200040E00E94CB0583E061E040E00E94CB05F0
:1018300083E062E040E00E94CB0583E063E040E0AB
:101840000E94CB0583E060E041E00E94D30683E084
:1018500061E041E00E94D30683E062E041E00E9443
:10186000D30683E063E041E00E94D30683E064E0B6
:1018700041E00E94CB0583E065E041E00E94CB059A
:1018800083E066E041E00E94CB0583E067E041E051
:101890000E94CB0583E064E041E00E94D30683E030
:1018A00065E041E00E94D30683E066E041E00E94EB
:1018B000D30683E067E041E00E94D306CF91DF9139
:1018C0000895DF93CF93CDB7DEB762970FB6F89444
:1018D000DEBF0FBECDBF8FEF898B84E0888BC9C080
:1018E00083E0688940E00E94D3061F86B6C09E014F
:1018F0002E5E3F4F83E06F85A9010E9455088A89BB
:10190000882309F0A7C080E090E0A0E2B1E48B87D3
:101910009C87AD87BE876B857C858D859E8520E005
:1019200030E04AEF54E40E941702DC01CB018F83C0
:101930009887A987BA876F81788589859A8520E0FD
:1019400030E040E85FE30E94A10388232CF481E0AB
:1019500090E09E838D833FC06F81788589859A85CD
:1019600020E03FEF4FE757E40E94410318164CF583
:101970006B857C858D859E8520E030E040E251E4DA
:101980000E941702DC01CB01BC01CD010E94410085
:10199000DC01CB019E838D830FC088EC90E09C839B
:1019A0008B838B819C810197F1F79C838B838D8145
:1019B0009E8101979E838D838D819E81009769F71B
:1019C00014C06F81788589859A850E944100DC0169
:1019D000CB019E838D838D819E819A8389838981AA
:1019E0009A810197F1F79A8389839E012E5E3F4F7A
:1019F00083E06F85A9010E9455088A898823A9F48C
:101A00008F85482F50E08889882F90E09C012450D2
:101A10003040CA01880F991F880F991F820F931FAA
:101A2000FC01E855FF4F8081898B9E012E5E3F4F60
:101A300083E06F85A9010E94550808C09E012E5EB3
:101A40003F4F83E06F85A9010E9455088A8988234A
:101A5000A9F307C08F858F5F8F878F85843008F447
:101A600046CF83E0688941E00E94D30688898F5F72
:101A7000888B8889883008F433CF898962960FB6BD
:101A8000F894DEBF0FBECDBFCF91DF910895DF93F5
:101A9000CF93CDB7DEB7E8970FB6F894DEBF0FBE91
:101AA000CDBF80E06FEF0E94870981E060E041E0F8
:101AB0000E94CB0581E061E041E00E94CB0581E01E
:101AC00062E041E00E94CB050E94711080E090E04E
:101AD000A8E4B2E48DAB9EABAFABB8AF6DA97EA965
:101AE0008FA998AD20E030E04AEF54E40E9417023D
:101AF000DC01CB0189AB9AABABABBCAB69A97AA9D2
:101B00008BA99CA920E030E040E85FE30E94A1039C
:101B100088232CF481E090E098AB8FA73FC069A99F
:101B20007AA98BA99CA920E03FEF4FE757E40E94D8
:101B3000410318164CF56DA97EA98FA998AD20E038
:101B400030E040E251E40E941702DC01CB01BC010D
:101B5000CD010E944100DC01CB0198AB8FA70FC0E3
:101B600088EC90E09EA78DA78DA59EA50197F1F723
:101B70009EA78DA78FA598A9019798AB8FA78FA532
:101B800098A9009769F714C069A97AA98BA99CA99B
:101B90000E944100DC01CB0198AB8FA78FA598A9CB
:101BA0009CA78BA78BA59CA50197F1F79CA78BA75A
:101BB00082E00E94DB0F80E090E0A8E4B2E48FA313
:101BC00098A7A9A7BAA76FA178A589A59AA520E08B
:101BD00030E04AEF54E40E941702DC01CB018BA3F2
:101BE0009CA3ADA3BEA36BA17CA18DA19EA120E06F
:101BF00030E040E85FE30E94A10388232CF481E0F9
:101C000090E09AA389A33FC06BA17CA18DA19EA166
:101C100020E03FEF4FE757E40E94410318164CF5D0
:101C20006FA178A589A59AA520E030E040E251E4B3
:101C30000E941702DC01CB01BC01CD010E944100D2
:101C4000DC01CB019AA389A30FC088EC90E098A394
:101C50008F8F8F8D98A10197F1F798A38F8F89A10E
:101C60009AA101979AA389A389A19AA1009769F7DC
:101C700014C06BA17CA18DA19EA10E944100DC013A
:101C8000CB019AA389A389A19AA19E8F8D8F8D8D57
:101C90009E8D0197F1F79E8F8D8F88E30E94DB0F59
:101CA00080E090E0A0E8BFE3898F9A8FAB8FBC8F74
:101CB000698D7A8D8B8D9C8D20E030E04AEF54E465
:101CC0000E941702DC01CB018D8B9E8BAF8BB88FEE
:101CD0006D897E898F89988D20E030E040E85FE350
:101CE0000E94A10388232CF481E090E09C8B8B8BD5
:101CF0003FC06D897E898F89988D20E03FEF4FE747
:101D000057E40E94410318164CF5698D7A8D8B8D2E
:101D10009C8D20E030E040E251E40E941702DC019B
:101D2000CB01BC01CD010E944100DC01CB019C8BA9
:101D30008B8B0FC088EC90E09A8B898B89899A896C
:101D40000197F1F79A8B898B8B899C8901979C8BE2
:101D50008B8B8B899C89009769F714C06D897E896C
:101D60008F89988D0E944100DC01CB019C8B8B8B6D
:101D70008B899C89988B8F878F8598890197F1F73C
:101D8000988B8F878CE00E94DB0F80E090E0A0E8CA
:101D9000BFE38B879C87AD87BE876B857C858D85F0
:101DA0009E8520E030E04AEF54E40E941702DC01F7
:101DB000CB018F839887A987BA876F8178858985BA
:101DC0009A8520E030E040E85FE30E94A103882389
:101DD0002CF481E090E09E838D833FC06F817885F5
:101DE00089859A8520E03FEF4FE757E40E94410341
:101DF00018164CF56B857C858D859E8520E030E03E
:101E000040E251E40E941702DC01CB01BC01CD018C
:101E10000E944100DC01CB019E838D830FC088ECC2
:101E200090E09C838B838B819C810197F1F79C834D
:101E30008B838D819E8101979E838D838D819E8171
:101E4000009769F714C06F81788589859A850E940B
:101E50004100DC01CB019E838D838D819E819A831D
:101E6000898389819A810197F1F79A8389830E94F6
:101E7000711086E00E94DB0FE8960FB6F894DEBF83
:101E80000FBECDBFCF91DF910895DF93CF93CDB734
:101E9000DEB72F970FB6F894DEBF0FBECDBF8F878A
:101EA00080E06F850E94C80981E060E041E00E9407
:101EB000D30681E061E040E00E94D3060E94B911A0
:101EC00080E090E0A0E8BFE38B879C87AD87BE876A
:101ED0006B857C858D859E8520E030E04AEF54E45B
:101EE0000E941702DC01CB018F839887A987BA87EC
:101EF0006F81788589859A8520E030E040E85FE34E
:101F00000E94A10388232CF481E090E09E838D83BE
:101F10003FC06F81788589859A8520E03FEF4FE744
:101F200057E40E94410318164CF56B857C858D851E
:101F30009E8520E030E040E251E40E941702DC017F
:101F4000CB01BC01CD010E944100DC01CB019E838D
:101F50008D830FC088EC90E09C838B838B819C8168
:101F60000197F1F79C838B838D819E8101979E83DE
:101F70008D838D819E81009769F714C06F8178856C
:101F800089859A850E944100DC01CB019E838D8367
:101F90008D819E819A83898389819A810197F1F746
:101FA0009A8389832F960FB6F894DEBF0FBECDBFFC
:101FB000CF91DF910895DF93CF93CDB7DEB72F9701
:101FC0000FB6F894DEBF0FBECDBF8F8780E06F8560
:101FD0000E94C80981E060E040E00E94D30681E0F1
:101FE00061E040E00E94D3060E94B91180E090E0D9
:101FF000A0E8BFE38B879C87AD87BE876B857C8518
:102000008D859E8520E030E04AEF54E40E9417025F
:10201000DC01CB018F839887A987BA876F81788588
:1020200089859A8520E030E040E85FE30E94A103C3
:1020300088232CF481E090E09E838D833FC06F81E4
:10204000788589859A8520E03FEF4FE757E40E9425
:10205000410318164CF56B857C858D859E8520E0A7
:1020600030E040E251E40E941702DC01CB01BC01E8
:10207000CD010E944100DC01CB019E838D830FC006
:1020800088EC90E09C838B838B819C810197F1F796
:102090009C838B838D819E8101979E838D838D810F
:1020A0009E81009769F714C06F81788589859A852C
:1020B0000E944100DC01CB019E838D838D819E8136
:1020C0009A83898389819A810197F1F79A83898319
:1020D0002F960FB6F894DEBF0FBECDBFCF91DF9124
:1020E0000895DF93CF93CDB7DEB72E970FB6F89450
:1020F000DEBF0FBECDBF81E00E94DB0F80E090E02D
:10210000A0E2B1E48B879C87AD87BE876B857C8519
:102110008D859E8520E030E04AEF54E40E9417024E
:10212000DC01CB018F839887A987BA876F81788577
:1021300089859A8520E030E040E85FE30E94A103B2
:1021400088232CF481E090E09E838D833FC06F81D3
:10215000788589859A8520E03FEF4FE757E40E9414
:10216000410318164CF56B857C858D859E8520E096
:1021700030E040E251E40E941702DC01CB01BC01D7
:10218000CD010E944100DC01CB019E838D830FC0F5
:1021900088EC90E09C838B838B819C810197F1F785
:1021A0009C838B838D819E8101979E838D838D81FE
:1021B0009E81009769F714C06F81788589859A851B
:1021C0000E944100DC01CB019E838D838D819E8125
:1021D0009A83898389819A810197F1F79A83898308
:1021E0002E960FB6F894DEBF0FBECDBFCF91DF9114
:1021F0000895DF93CF9300D00F92CDB7DEB79B83C6
:102200008A8319820EC08981282F30E08A819B81C0
:10221000FC01E20FF31F80810E94450F89818F5FCF
:1022200089838981282F30E08A819B81FC01E20F1C
:10223000F31F8081882339F70F900F900F90CF9173
:10224000DF910895DF93CF93CDB7DEB761970FB6D7
:10225000F894DEBF0FBECDBF888B698B8889813033
:1022600021F4898981588F8706C08889823019F4C2
:10227000898981548F878F850E94DB0F80E090E0F1
:10228000A0E8BFE38B879C87AD87BE876B857C8585
:102290008D859E8520E030E04AEF54E40E941702CD
:1022A000DC01CB018F839887A987BA876F817885F6
:1022B00089859A8520E030E040E85FE30E94A10331
:1022C00088232CF481E090E09E838D833FC06F8152
:1022D000788589859A8520E03FEF4FE757E40E9493
:1022E000410318164CF56B857C858D859E8520E015
:1022F00030E040E251E40E941702DC01CB01BC0156
:10230000CD010E944100DC01CB019E838D830FC073
:1023100088EC90E09C838B838B819C810197F1F703
:102320009C838B838D819E8101979E838D838D817C
:102330009E81009769F714C06F81788589859A8599
:102340000E944100DC01CB019E838D838D819E81A3
:102350009A83898389819A810197F1F79A83898386
:1023600061960FB6F894DEBF0FBECDBFCF91DF915F
:102370000895DF93CF93CDB7DEB76C970FB6F8947F
:10238000DEBF0FBECDBF81E062E041E00E94D30618
:1023900080E090E0A0E8BFE3898F9A8FAB8FBC8F7D
:1023A000698D7A8D8B8D9C8D20E030E04AEF54E46E
:1023B0000E941702DC01CB018D8B9E8BAF8BB88FF7
:1023C0006D897E898F89988D20E030E040E85FE359
:1023D0000E94A10388232CF481E090E09C8B8B8BDE
:1023E0003FC06D897E898F89988D20E03FEF4FE750
:1023F00057E40E94410318164CF5698D7A8D8B8D38
:102400009C8D20E030E040E251E40E941702DC01A4
:10241000CB01BC01CD010E944100DC01CB019C8BB2
:102420008B8B0FC088EC90E09A8B898B89899A8975
:102430000197F1F79A8B898B8B899C8901979C8BEB
:102440008B8B8B899C89009769F714C06D897E8975
:102450008F89988D0E944100DC01CB019C8B8B8B76
:102460008B899C89988B8F878F8598890197F1F745
:10247000988B8F8781E062E040E00E94D30680E085
:1024800090E0A0E8BFE38B879C87AD87BE876B8514
:102490007C858D859E8520E030E04AEF54E40E94E3
:1024A0001702DC01CB018F839887A987BA876F81D8
:1024B000788589859A8520E030E040E85FE30E94D6
:1024C000A10388232CF481E090E09E838D833FC09C
:1024D0006F81788589859A8520E03FEF4FE757E443
:1024E0000E94410318164CF56B857C858D859E8571
:1024F00020E030E040E251E40E941702DC01CB0111
:10250000BC01CD010E944100DC01CB019E838D8383
:102510000FC088EC90E09C838B838B819C8101971A
:10252000F1F79C838B838D819E8101979E838D83A0
:102530008D819E81009769F714C06F8178858985A8
:102540009A850E944100DC01CB019E838D838D81A1
:102550009E819A83898389819A810197F1F79A8371
:1025600089836C960FB6F894DEBF0FBECDBFCF91B6
:10257000DF910895DF93CF93CDB7DEB72C970FB6D9
:10258000F894DEBF0FBECDBF69877A878B879C87A3
:1025900081E090E0A0E0B0E08D839E83AF83B887B8
:1025A00089859A85AB85BC8589839A83AB83BC83F7
:1025B00089859A85AB85BC850097A105B10521F475
:1025C00080E30E94450F9BC089859A85AB85BC85B9
:1025D000BB23BCF589859A85AB85BC85B095A09554
:1025E000909581959F4FAF4FBF4F89879A87AB8753
:1025F000BC878DE20E94450F24C089819A81AB81FE
:10260000BC812AE030E040E050E0BC01CD010E94F6
:10261000002ADA01C90189839A83AB83BC838D8147
:102620009E81AF81B8852AE030E040E050E0BC01F7
:10263000CD010E94BF29DC01CB018D839E83AF8336
:10264000B88789819A81AB81BC810097A105B105CA
:10265000A1F68D819E81AF81B8852AE030E040E00F
:1026600050E0BC01CD010E94DE29DA01C9018D8351
:102670009E83AF83B8873AC089859A85AB85BC8530
:102680002D813E814F815885BC01CD010E94DE29FC
:10269000DA01C90189839A83AB83BC8389859A85D2
:1026A000AB85BC852D813E814F815885BC01CD0114
:1026B0000E94DE29DC01CB0189879A87AB87BC8722
:1026C0008D819E81AF81B8852AE030E040E050E006
:1026D000BC01CD010E94DE29DA01C9018D839E83F0
:1026E000AF83B8878981805D0E94450F8D819E816F
:1026F000AF81B8850097A105B10509F0BDCF2C9633
:102700000FB6F894DEBF0FBECDBFCF91DF91089515
:10271000DF93CF93CDB7DEB764970FB6F894DEBFE3
:102720000FBECDBF698B7A8B8B8B9C8B81E090E049
:10273000A0E0B0E08D879E87AF87B88B69897A89E2
:102740008B899C890E94D103DC01CB0189879A8700
:10275000AB87BC871D821E821F82188669897A8991
:102760008B899C8920E030E040E050E00E9411031A
:10277000882321F480E30E94450FD2C069897A89B9
:102780008B899C8920E030E040E050E00E94A1036A
:102790008823E4F589899A89AB89BC89B058898BEB
:1027A0009A8BAB8BBC8B8DE20E94450F2FC0898525
:1027B0009A85AB85BC852AE030E040E050E0BC0162
:1027C000CD010E94002ADA01C90189879A87AB8767
:1027D000BC878D819E81AF81B8850196A11DB11DF9
:1027E0008D839E83AF83B8878D859E85AF85B8899D
:1027F0002AE030E040E050E0BC01CD010E94BF295A
:10280000DC01CB018D879E87AF87B88B89859A8540
:10281000AB85BC850097A105B10549F669897A8920
:102820008B899C8920E030E44CE156E40E94170239
:10283000DC01CB01BC01CD010E94D103DC01CB0145
:1028400089839A83AB83BC838D859E85AF85B88948
:1028500028EE33E040E050E0BC01CD010E94BF29EA
:10286000DC01CB018D879E87AF87B88B50C08981F3
:102870009A81AB81BC812D853E854F855889BC01ED
:10288000CD010E94DE29DA01C90189879A87AB87C9
:10289000BC8789819A81AB81BC812D853E854F851E
:1028A0005889BC01CD010E94DE29DC01CB0189835E
:1028B0009A83AB83BC838D859E85AF85B8892AE0DA
:1028C00030E040E050E0BC01CD010E94DE29DA0199
:1028D000C9018D879E87AF87B88B8D819E81AF811F
:1028E000B8850097A105B10519F48EE20E94450F45
:1028F0008D819E81AF81B8850197A109B1098D8332
:102900009E83AF83B8878985805D0E94450F8D8542
:102910009E85AF85B8890097A105B10509F0A7CFBD
:1029200064960FB6F894DEBF0FBECDBFCF91DF9196
:1029300008950F931F93DF93CF93CDB7DEB7C55A9A
:10294000D1400FB6F894DEBF0FBECDBF6091B80086
:102950007091B9008091BA000E94B50B6091BB00E4
:102960007091BC008091BD000E94B50B6091BE00CB
:102970007091BF008091C0000E94B50B6091C100B2
:102980007091C2008091C3000E94B50B0E94470D58
:102990000E940A0C81E061E00E94221180E690E032
:1029A0000E94F91082E061E00E94221180E790E02D
:1029B0000E94F910FE01EF55FE4F80E090E0A0E28A
:1029C000B1E480839183A283B3838E0103561E4FAB
:1029D000FE01EF55FE4F608171818281938120E07D
:1029E00030E04AEF54E40E941702DC01CB01F80109
:1029F00080839183A283B383FE01E356FE4F6081FF
:102A000071818281938120E030E040E85FE30E94A1
:102A1000A103882344F4FE01E556FE4F81E090E0D7
:102A20009183808364C0FE01E356FE4F6081718113
:102A30008281938120E03FEF4FE757E40E944103FA
:102A400018160CF043C0FE01EF55FE4F60817181F6
:102A50008281938120E030E040E251E40E9417023D
:102A6000DC01CB018E0105561E4FBC01CD010E9439
:102A70004100DC01CB01F801918380831FC0FE017E
:102A8000E756FE4F88EC90E091838083FE01E75685
:102A9000FE4F808191810197F1F7FE01E756FE4FCD
:102AA00091838083DE01A556BE4FFE01E556FE4FA1
:102AB00080819181019711969C938E93FE01E5563A
:102AC000FE4F808191810097D1F627C08E01055677
:102AD0001E4FFE01E356FE4F60817181828193811A
:102AE0000E944100DC01CB01F80191838083DE016B
:102AF000A956BE4FFE01E556FE4F808191818D9310
:102B00009C93FE01E956FE4F808191810197F1F778
:102B1000FE01E956FE4F918380830E94711081E08F
:102B200061E00E94221181E890E00E94F91082E0A9
:102B300061E00E942211FE01ED56FE4F80E090E020
:102B4000A0E2B1E480839183A283B3838E01015715
:102B50001E4FFE01ED56FE4F60817181828193818F
:102B600020E030E04AEF54E40E941702DC01CB0180
:102B7000F80180839183A283B383FE01E157FE4F66
:102B8000608171818281938120E030E040E85FE3E1
:102B90000E94A103882344F4FE01E357FE4F81E025
:102BA00090E09183808364C0FE01E157FE4F608115
:102BB00071818281938120E03FEF4FE757E40E94CB
:102BC000410318160CF043C0FE01ED56FE4F608124
:102BD00071818281938120E030E040E251E40E94E3
:102BE0001702DC01CB018E0103571E4FBC01CD0142
:102BF0000E944100DC01CB01F801918380831FC05A
:102C0000FE01E557FE4F88EC90E091838083FE0142
:102C1000E557FE4F808191810197F1F7FE01E5575D
:102C2000FE4F91838083DE01A357BE4FFE01E35721
:102C3000FE4F80819181019711969C938E93FE01A6
:102C4000E357FE4F808191810097D1F627C08E0116
:102C500003571E4FFE01E157FE4F60817181828153
:102C600093810E944100DC01CB01F80191838083B4
:102C7000DE01A757BE4FFE01E357FE4F80819181D1
:102C80008D939C93FE01E757FE4F808191810197C0
:102C9000F1F7FE01E757FE4F918380830E94711088
:102CA0008EE890E00E94F9100E94610CFE01EB5545
:102CB000FE4F8083FE01EB55FE4F8081813309F08A
:102CC000EDC26091B8007091B9008091BA000E9485
:102CD000F60BFE01EB57FE4F80E090E0A8E4B2E473
:102CE00080839183A283B3838E010F571E4FFE0111
:102CF000EB57FE4F608171818281938120E030E04B
:102D00004AEF54E40E941702DC01CB01F8018083F2
:102D10009183A283B383FE01EF57FE4F60817181DF
:102D20008281938120E030E040E85FE30E94A103CC
:102D3000882344F4FE01E158FE4F81E090E0918346
:102D4000808364C0FE01EF57FE4F608171818281F4
:102D5000938120E03FEF4FE757E40E9441031816AC
:102D60000CF043C0FE01EB57FE4F60817181828100
:102D7000938120E030E040E251E40E941702DC0140
:102D8000CB018E0101581E4FBC01CD010E944100B4
:102D9000DC01CB01F801918380831FC0FE01E35861
:102DA000FE4F88EC90E091838083FE01E358FE4F54
:102DB000808191810197F1F7FE01E358FE4F9183E5
:102DC0008083DE01A158BE4FFE01E158FE4F808195
:102DD0009181019711969C938E93FE01E158FE4FCD
:102DE000808191810097D1F627C08E0101581E4F36
:102DF000FE01EF57FE4F60817181828193810E94B5
:102E00004100DC01CB01F80191838083DE01A558EC
:102E1000BE4FFE01E158FE4F808191818D939C93BE
:102E2000FE01E558FE4F808191810197F1F7FE0187
:102E3000E558FE4F918380836091BB007091BC0088
:102E40008091BD000E94F60BFE01E958FE4F80E024
:102E500090E0A8E4B2E480839183A283B3838E01DF
:102E60000D581E4FFE01E958FE4F6081718182812D
:102E7000938120E030E04AEF54E40E941702DC0125
:102E8000CB01F80180839183A283B383FE01ED58C7
:102E9000FE4F608171818281938120E030E040E8C3
:102EA0005FE30E94A103882344F4FE01EF58FE4F24
:102EB00081E090E09183808364C0FE01ED58FE4F75
:102EC000608171818281938120E03FEF4FE757E479
:102ED0000E94410318160CF043C0FE01E958FE4F52
:102EE000608171818281938120E030E040E251E491
:102EF0000E941702DC01CB018E010F581E4FBC014E
:102F0000CD010E944100DC01CB01F8019183808357
:102F10001FC0FE01E159FE4F88EC90E09183808351
:102F2000FE01E159FE4F808191810197F1F7FE0189
:102F3000E159FE4F91838083DE01AF58BE4FFE0101
:102F4000EF58FE4F80819181019711969C938E934B
:102F5000FE01EF58FE4F808191810097D1F627C086
:102F60008E010F581E4FFE01ED58FE4F608171819A
:102F7000828193810E944100DC01CB01F8019183A1
:102F80008083DE01A359BE4FFE01EF58FE4F8081C2
:102F900091818D939C93FE01E359FE4F8081918135
:102FA0000197F1F7FE01E359FE4F91838083609111
:102FB000BE007091BF008091C0000E94F60BFE0120
:102FC000E759FE4F80E090E0A8E4B2E4808391836B
:102FD000A283B3838E010B591E4FFE01E759FE4FAA
:102FE000608171818281938120E030E04AEF54E476
:102FF0000E941702DC01CB01F80180839183A28338
:10300000B383FE01EB59FE4F608171818281938110
:1030100020E030E040E85FE30E94A103882344F40D
:10302000FE01ED59FE4F81E090E09183808364C002
:10303000FE01EB59FE4F608171818281938120E016
:103040003FEF4FE757E40E94410318160CF043C0CE
:10305000FE01E759FE4F608171818281938120E0FA
:1030600030E040E251E40E941702DC01CB018E0106
:103070000D591E4FBC01CD010E944100DC01CB0166
:10308000F801918380831FC0FE01EF59FE4F88EC49
:1030900090E091838083FE01EF59FE4F8081918102
:1030A0000197F1F7FE01EF59FE4F91838083DE0116
:1030B000AD59BE4FFE01ED59FE4F808191810197C0
:1030C00011969C938E93FE01ED59FE4F8081918164
:1030D0000097D1F627C08E010D591E4FFE01EB5906
:1030E000FE4F60817181828193810E944100DC01E9
:1030F000CB01F80191838083DE01A15ABE4FFE010E
:10310000ED59FE4F808191818D939C93FE01E15A90
:10311000FE4F808191810197F1F7FE01E15AFE4F48
:10312000918380836091C1007091C2008091C3003F
:103130000E94F60BFE01E55AFE4F80E090E0A8E405
:10314000B2E480839183A283B3838E01095A1E4F18
:10315000FE01E55AFE4F608171818281938120E0FA
:1031600030E04AEF54E40E941702DC01CB01F80181
:1031700080839183A283B383FE01E95AFE4F60816D
:1031800071818281938120E030E040E85FE30E941A
:10319000A103882344F4FE01EB5AFE4F81E090E046
:1031A0009183808364C0FE01E95AFE4F6081718182
:1031B0008281938120E03FEF4FE757E40E94410373
:1031C00018160CF043C0FE01E55AFE4F6081718174
:1031D0008281938120E030E040E251E40E941702B6
:1031E000DC01CB018E010B5A1E4FBC01CD010E94A8
:1031F0004100DC01CB01F801918380831FC0FE01F7
:10320000ED5AFE4F88EC90E091838083FE01ED5AE9
:10321000FE4F808191810197F1F7FE01ED5AFE4F3B
:1032200091838083DE01AB5ABE4FFE01EB5AFE4F05
:1032300080819181019711969C938E93FE01EB5AA8
:10324000FE4F808191810097D1F628C08E010B5AE4
:103250001E4FFE01E95AFE4F608171818281938188
:103260000E944100DC01CB01F80191838083DE01E3
:10327000AF5ABE4FFE01EB5AFE4F808191811196ED
:103280009C938E93FE01EF5AFE4F808191810197AE
:10329000F1F7FE01EF5AFE4F91838083FE01EB555B
:1032A000FE4F8081823309F0D9C56091B8007091DA
:1032B000B9008091BA000E94CB0BFE01E35BFE4F88
:1032C00080E090E0A8E4B2E480839183A283B3839A
:1032D0008E01075B1E4FFE01E35BFE4F6081718133
:1032E0008281938120E030E04AEF54E40E9417028B
:1032F000DC01CB01F80180839183A283B383FE01BB
:10330000E75BFE4F608171818281938120E030E034
:1033100040E85FE30E94A103882344F4FE01E95BD7
:10332000FE4F81E090E09183808364C0FE01E75B03
:10333000FE4F608171818281938120E03FEF4FE7F2
:1033400057E40E94410318160CF043C0FE01E35BF2
:10335000FE4F608171818281938120E030E040E204
:1033600051E40E941702DC01CB018E01095B1E4F64
:10337000BC01CD010E944100DC01CB01F801918329
:1033800080831FC0FE01EB5BFE4F88EC90E09183D1
:103390008083FE01EB5BFE4F808191810197F1F705
:1033A000FE01EB5BFE4F91838083DE01A95BBE4F84
:1033B000FE01E95BFE4F80819181019711969C93FC
:1033C0008E93FE01E95BFE4F808191810097D1F6DB
:1033D00027C08E01095B1E4FFE01E75BFE4F608137
:1033E0007181828193810E944100DC01CB01F8014F
:1033F00091838083DE01AD5BBE4FFE01E95BFE4F32
:10340000808191818D939C93FE01ED5BFE4F8081C5
:1034100091810197F1F7FE01ED5BFE4F918380836F
:103420006091BB007091BC008091BD000E94CB0BED
:10343000FE01E15CFE4F80E090E0A8E4B2E480830E
:103440009183A283B3838E01055C1E4FFE01E15C74
:10345000FE4F608171818281938120E030E04AEFEC
:1034600054E40E941702DC01CB01F80180839183B0
:10347000A283B383FE01E55CFE4F6081718182818E
:10348000938120E030E040E85FE30E94A1038823BD
:1034900044F4FE01E75CFE4F81E090E0918380837D
:1034A00064C0FE01E55CFE4F608171818281938181
:1034B00020E03FEF4FE757E40E94410318160CF05D
:1034C00043C0FE01E15CFE4F608171818281938186
:1034D00020E030E040E251E40E941702DC01CB0121
:1034E0008E01075C1E4FBC01CD010E944100DC0132
:1034F000CB01F801918380831FC0FE01E95CFE4F80
:1035000088EC90E091838083FE01E95CFE4F80812E
:1035100091810197F1F7FE01E95CFE4F9183808371
:10352000DE01A75CBE4FFE01E75CFE4F808191810A
:10353000019711969C938E93FE01E75CFE4F80816C
:1035400091810097D1F627C08E01075C1E4FFE01C6
:10355000E55CFE4F60817181828193810E94410010
:10356000DC01CB01F80191838083DE01AB5CBE4FAF
:10357000FE01E75CFE4F808191818D939C93FE015B
:10358000EB5CFE4F808191810197F1F7FE01EB5CCE
:10359000FE4F918380836091BE007091BF00809147
:1035A000C0000E94CB0BFE01EF5CFE4F80E090E07C
:1035B000A8E4B2E480839183A283B3838E01035D88
:1035C0001E4FFE01EF5CFE4F60817181828193810D
:1035D00020E030E04AEF54E40E941702DC01CB0106
:1035E000F80180839183A283B383FE01E35DFE4FE4
:1035F000608171818281938120E030E040E85FE367
:103600000E94A103882344F4FE01E55DFE4F81E0A2
:1036100090E09183808364C0FE01E35DFE4F608192
:1036200071818281938120E03FEF4FE757E40E9450
:10363000410318160CF043C0FE01EF5CFE4F6081A1
:1036400071818281938120E030E040E251E40E9468
:103650001702DC01CB018E01055D1E4FBC01CD01BF
:103660000E944100DC01CB01F801918380831FC0DF
:10367000FE01E75DFE4F88EC90E091838083FE01C0
:10368000E75DFE4F808191810197F1F7FE01E75DD3
:10369000FE4F91838083DE01A55DBE4FFE01E55D97
:1036A000FE4F80819181019711969C938E93FE012C
:1036B000E55DFE4F808191810097D1F627C08E0194
:1036C000055D1E4FFE01E35DFE4F608171818281C9
:1036D00093810E944100DC01CB01F801918380833A
:1036E000DE01A95DBE4FFE01E55DFE4F8081918147
:1036F0008D939C93FE01E95DFE4F8081918101973E
:10370000F1F7FE01E95DFE4F918380836091C10076
:103710007091C2008091C3000E94CB0BFE01ED5D51
:10372000FE4F80E090E0A0E2B1E480839183A28329
:10373000B3838E01015E1E4FFE01ED5DFE4F608181
:1037400071818281938120E030E04AEF54E40E944D
:103750001702DC01CB01F80180839183A283B3833C
:10376000FE01E15EFE4F608171818281938120E0E4
:1037700030E040E85FE30E94A103882344F4FE01A7
:10378000E35EFE4F81E090E09183808364C0FE01A0
:10379000E15EFE4F608171818281938120E03FEF85
:1037A0004FE757E40E94410318160CF043C0FE0196
:1037B000ED5DFE4F608171818281938120E030E078
:1037C00040E251E40E941702DC01CB018E01035E4E
:1037D0001E4FBC01CD010E944100DC01CB01F8016C
:1037E000918380831FC0FE01E55EFE4F88EC90E070
:1037F00091838083FE01E55EFE4F80819181019778
:10380000F1F7FE01E55EFE4F91838083DE01A35E4A
:10381000BE4FFE01E35EFE4F8081918101971196BC
:103820009C938E93FE01E35EFE4F80819181009711
:10383000D1F627C08E01035E1E4FFE01E15EFE4FF2
:1038400060817181828193810E944100DC01CB0102
:10385000F80191838083DE01A75EBE4FFE01E35E27
:10386000FE4F808191818D939C93FE01E75EFE4F18
:10387000808191810197F1F7FE01E75EFE4F918310
:1038800080836091B8007091B9008091BA000E9465
:10389000E10BFE01EB5EFE4F80E090E0A0E2B1E4C0
:1038A00080839183A283B3838E010F5E1E4FFE013E
:1038B000EB5EFE4F608171818281938120E030E078
:1038C0004AEF54E40E941702DC01CB01F801808327
:1038D0009183A283B383FE01EF5EFE4F608171810D
:1038E0008281938120E030E040E85FE30E94A10301
:1038F000882344F4FE01E15FFE4F81E090E0918374
:10390000808364C0FE01EF5EFE4F60817181828121
:10391000938120E03FEF4FE757E40E9441031816E0
:103920000CF043C0FE01EB5EFE4F6081718182812D
:10393000938120E030E040E251E40E941702DC0174
:10394000CB018E01015F1E4FBC01CD010E944100E1
:10395000DC01CB01F801918380831FC0FE01E35F8E
:10396000FE4F88EC90E091838083FE01E35FFE4F81
:10397000808191810197F1F7FE01E35FFE4F918312
:103980008083DE01A15FBE4FFE01E15FFE4F8081BB
:103990009181019711969C938E93FE01E15FFE4FFA
:1039A000808191810097D1F627C08E01015F1E4F63
:1039B000FE01EF5EFE4F60817181828193810E94E2
:1039C0004100DC01CB01F80191838083DE01A55F1A
:1039D000BE4FFE01E15FFE4F808191818D939C93EC
:1039E000FE01E55FFE4F808191810197F1F7FE01B5
:1039F000E55FFE4F918380836091BB007091BC00B6
:103A00008091BD000E94E10BFE01E95FFE4F80E066
:103A100090E0A0E2B1E480839183A283B3838E011E
:103A20000D5F1E4FFE01E95FFE4F60817181828153
:103A3000938120E030E04AEF54E40E941702DC0159
:103A4000CB01F80180839183A283B383FE01ED5FF4
:103A5000FE4F608171818281938120E030E040E8F7
:103A60005FE30E94A103882344F4FE01EF5FFE4F51
:103A700081E090E09183808364C0FE01ED5FFE4FA2
:103A8000608171818281938120E03FEF4FE757E4AD
:103A90000E94410318160CF043C0FE01E95FFE4F7F
:103AA000608171818281938120E030E040E251E4C5
:103AB0000E941702DC01CB018E010F5F1E4FBC017B
:103AC000CD010E944100DC01CB01F801918380838C
:103AD0001FC0FE01E150FF4F88EC90E0918380838E
:103AE000FE01E150FF4F808191810197F1F7FE01C6
:103AF000E150FF4F91838083DE01AF5FBE4FFE0137
:103B0000EF5FFE4F80819181019711969C938E9378
:103B1000FE01EF5FFE4F808191810097D1F627C0B3
:103B20008E010F5F1E4FFE01ED5FFE4F60817181C0
:103B3000828193810E944100DC01CB01F8019183D5
:103B40008083DE01A350BF4FFE01EF5FFE4F8081F7
:103B500091818D939C93FE01E350FF4F8081918171
:103B60000197F1F7FE01E350FF4F9183808360914D
:103B7000BE007091BF008091C0000E94E10BFE0169
:103B8000E750FF4F80E090E0A0E2B1E480839183B2
:103B9000A283B3838E010B501F4FFE01E750FF4FEE
:103BA000608171818281938120E030E04AEF54E4AA
:103BB0000E941702DC01CB01F80180839183A2836C
:103BC000B383FE01EB50FF4F60817181828193814D
:103BD00020E030E040E85FE30E94A103882344F442
:103BE000FE01ED50FF4F81E090E09183808364C03F
:103BF000FE01EB50FF4F608171818281938120E053
:103C00003FEF4FE757E40E94410318160CF043C002
:103C1000FE01E750FF4F608171818281938120E036
:103C200030E040E251E40E941702DC01CB018E013A
:103C30000D501F4FBC01CD010E944100DC01CB01A2
:103C4000F801918380831FC0FE01EF50FF4F88EC85
:103C500090E091838083FE01EF50FF4F808191813E
:103C60000197F1F7FE01EF50FF4F91838083DE0152
:103C7000AD50BF4FFE01ED50FF4F80819181019704
:103C800011969C938E93FE01ED50FF4F80819181A0
:103C90000097D1F627C08E010D501F4FFE01EB504B
:103CA000FF4F60817181828193810E944100DC011C
:103CB000CB01F80191838083DE01A151BF4FFE014A
:103CC000ED50FF4F808191818D939C93FE01E151D6
:103CD000FF4F808191810197F1F7FE01E151FF4F84
:103CE000918380836091C1007091C2008091C30074
:103CF0000E94E10BFE01E551FF4F80E090E0A0E261
:103D0000B1E480839183A283B3838E0109511F4F55
:103D1000FE01E551FF4F608171818281938120E036
:103D200030E04AEF54E40E941702DC01CB01F801B5
:103D300080839183A283B383FE01E951FF4F6081A9
:103D400071818281938120E030E040E85FE30E944E
:103D5000A103882344F4FE01EB51FF4F81E090E082
:103D60009183808364C0FE01E951FF4F60817181BE
:103D70008281938120E03FEF4FE757E40E944103A7
:103D800018160CF043C0FE01E551FF4F60817181B0
:103D90008281938120E030E040E251E40E941702EA
:103DA000DC01CB018E010B511F4FBC01CD010E94E4
:103DB0004100DC01CB01F801918380831FC0FE012B
:103DC000ED51FF4F88EC90E091838083FE01ED512F
:103DD000FF4F808191810197F1F7FE01ED51FF4F77
:103DE00091838083DE01AB51BF4FFE01EB51FF4F4A
:103DF00080819181019711969C938E93FE01EB51E6
:103E0000FF4F808191810097D1F628C08E010B5120
:103E10001F4FFE01E951FF4F6081718182819381C3
:103E20000E944100DC01CB01F80191838083DE0117
:103E3000AF51BF4FFE01EB51FF4F80819181119631
:103E40009C938E93FE01EF51FF4F808191810197EA
:103E5000F1F7FE01EF51FF4F91838083FE01EB5597
:103E6000FE4F8081833309F0D9C56091B80070910D
:103E7000B9008091BA000E94CB0BFE01E352FF4FC4
:103E800080E090E0A8E4B2E480839183A283B383CE
:103E90008E0107521F4FFE01E352FF4F6081718177
:103EA0008281938120E030E04AEF54E40E941702BF
:103EB000DC01CB01F80180839183A283B383FE01EF
:103EC000E752FF4F608171818281938120E030E071
:103ED00040E85FE30E94A103882344F4FE01E95215
:103EE000FF4F81E090E09183808364C0FE01E75240
:103EF000FF4F608171818281938120E03FEF4FE726
:103F000057E40E94410318160CF043C0FE01E3522F
:103F1000FF4F608171818281938120E030E040E237
:103F200051E40E941702DC01CB018E0109521F4FA0
:103F3000BC01CD010E944100DC01CB01F80191835D
:103F400080831FC0FE01EB52FF4F88EC90E091830D
:103F50008083FE01EB52FF4F808191810197F1F741
:103F6000FE01EB52FF4F91838083DE01A952BF4FC8
:103F7000FE01E952FF4F80819181019711969C9338
:103F80008E93FE01E952FF4F808191810097D1F617
:103F900027C08E0109521F4FFE01E752FF4F60817B
:103FA0007181828193810E944100DC01CB01F80183
:103FB00091838083DE01AD52BF4FFE01E952FF4F76
:103FC000808191818D939C93FE01ED52FF4F808102
:103FD00091810197F1F7FE01ED52FF4F91838083AC
:103FE0006091BB007091BC008091BD000E94CB0B22
:103FF000FE01E153FF4F80E090E0A8E4B2E480834B
:104000009183A283B3838E0105531F4FFE01E153B9
:10401000FF4F608171818281938120E030E04AEF1F
:1040200054E40E941702DC01CB01F80180839183E4
:10403000A283B383FE01E553FF4F608171818281CA
:10404000938120E030E040E85FE30E94A1038823F1
:1040500044F4FE01E753FF4F81E090E091838083B9
:1040600064C0FE01E553FF4F6081718182819381BD
:1040700020E03FEF4FE757E40E94410318160CF091
:1040800043C0FE01E153FF4F6081718182819381C2
:1040900020E030E040E251E40E941702DC01CB0155
:1040A0008E0107531F4FBC01CD010E944100DC016E
:1040B000CB01F801918380831FC0FE01E953FF4FBC
:1040C00088EC90E091838083FE01E953FF4F80816B
:1040D00091810197F1F7FE01E953FF4F91838083AE
:1040E000DE01A753BF4FFE01E753FF4F808191814F
:1040F000019711969C938E93FE01E753FF4F8081A9
:1041000091810097D1F627C08E0107531F4FFE0102
:10411000E553FF4F60817181828193810E9441004C
:10412000DC01CB01F80191838083DE01AB53BF4FEB
:10413000FE01E753FF4F808191818D939C93FE0197
:10414000EB53FF4F808191810197F1F7FE01EB5313
:10415000FF4F918380836091BE007091BF0080917A
:10416000C0000E94CB0BFE01EF53FF4F80E090E0B8
:10417000A8E4B2E480839183A283B3838E010354C5
:104180001F4FFE01EF53FF4F608171818281938148
:1041900020E030E04AEF54E40E941702DC01CB013A
:1041A000F80180839183A283B383FE01E354FF4F20
:1041B000608171818281938120E030E040E85FE39B
:1041C0000E94A103882344F4FE01E554FF4F81E0DF
:1041D00090E09183808364C0FE01E354FF4F6081CF
:1041E00071818281938120E03FEF4FE757E40E9485
:1041F000410318160CF043C0FE01EF53FF4F6081DE
:1042000071818281938120E030E040E251E40E949C
:104210001702DC01CB018E0105541F4FBC01CD01FB
:104220000E944100DC01CB01F801918380831FC013
:10423000FE01E754FF4F88EC90E091838083FE01FC
:10424000E754FF4F808191810197F1F7FE01E75418
:10425000FF4F91838083DE01A554BF4FFE01E554DB
:10426000FF4F80819181019711969C938E93FE015F
:10427000E554FF4F808191810097D1F627C08E01D0
:1042800005541F4FFE01E354FF4F6081718182810D
:1042900093810E944100DC01CB01F801918380836E
:1042A000DE01A954BF4FFE01E554FF4F808191818B
:1042B0008D939C93FE01E954FF4F8081918101977A
:1042C000F1F7FE01E954FF4F918380836091C100B3
:1042D0007091C2008091C3000E94CB0BFE01ED548F
:1042E000FF4F80E090E0A0E2B1E480839183A2835D
:1042F000B3838E0101551F4FFE01ED54FF4F6081C6
:1043000071818281938120E030E04AEF54E40E9481
:104310001702DC01CB01F80180839183A283B38370
:10432000FE01E155FF4F608171818281938120E020
:1043300030E040E85FE30E94A103882344F4FE01DB
:10434000E355FF4F81E090E09183808364C0FE01DC
:10435000E155FF4F608171818281938120E03FEFC1
:104360004FE757E40E94410318160CF043C0FE01CA
:10437000ED54FF4F608171818281938120E030E0B4
:1043800040E251E40E941702DC01CB018E0103558B
:104390001F4FBC01CD010E944100DC01CB01F8019F
:1043A000918380831FC0FE01E555FF4F88EC90E0AC
:1043B00091838083FE01E555FF4F808191810197B4
:1043C000F1F7FE01E555FF4F91838083DE01A35590
:1043D000BF4FFE01E355FF4F8081918101971196F8
:1043E0009C938E93FE01E355FF4F8081918100974E
:1043F000D1F627C08E0103551F4FFE01E155FF4F37
:1044000060817181828193810E944100DC01CB0136
:10441000F80191838083DE01A755BF4FFE01E3556C
:10442000FF4F808191818D939C93FE01E755FF4F53
:10443000808191810197F1F7FE01E755FF4F91834C
:1044400080836091C1007091C2008091C3000E947E
:10445000E10BFE01EB55FF4F80E090E0A0E2B1E4FC
:1044600080839183A283B3838E010F551F4FFE017A
:10447000EB55FF4F608171818281938120E030E0B4
:104480004AEF54E40E941702DC01CB01F80180835B
:104490009183A283B383FE01EF55FF4F6081718149
:1044A0008281938120E030E040E85FE30E94A10335
:1044B000882344F4FE01E156FF4F81E090E09183B0
:1044C000808364C0FE01EF55FF4F6081718182815E
:1044D000938120E03FEF4FE757E40E944103181615
:1044E0000CF043C0FE01EB55FF4F6081718182816A
:1044F000938120E030E040E251E40E941702DC01A9
:10450000CB018E0101561F4FBC01CD010E9441001D
:10451000DC01CB01F801918380831FC0FE01E356CB
:10452000FF4F88EC90E091838083FE01E356FF4FBC
:10453000808191810197F1F7FE01E356FF4F91834E
:104540008083DE01A156BF4FFE01E156FF4F8081FF
:104550009181019711969C938E93FE01E156FF4F36
:10456000808191810097D1F627C08E0101561F4F9F
:10457000FE01EF55FF4F60817181828193810E941E
:104580004100DC01CB01F80191838083DE01A55657
:10459000BF4FFE01E156FF4F808191818D939C9327
:1045A000FE01E556FF4F808191810197F1F7FE01F1
:1045B000E556FF4F918380836091BE007091BF00EC
:1045C0008091C0000E94E10BFE01E956FF4F80E0A0
:1045D00090E0A0E2B1E480839183A283B3838E0153
:1045E0000D561F4FFE01E956FF4F60817181828198
:1045F000938120E030E04AEF54E40E941702DC018E
:10460000CB01F80180839183A283B383FE01ED5631
:10461000FF4F608171818281938120E030E040E82A
:104620005FE30E94A103882344F4FE01EF56FF4F8D
:1046300081E090E09183808364C0FE01ED56FF4FDE
:10464000608171818281938120E03FEF4FE757E4E1
:104650000E94410318160CF043C0FE01E956FF4FBB
:10466000608171818281938120E030E040E251E4F9
:104670000E941702DC01CB018E010F561F4FBC01B7
:10468000CD010E944100DC01CB01F80191838083C0
:104690001FC0FE01E157FF4F88EC90E091838083BB
:1046A000FE01E157FF4F808191810197F1F7FE01F3
:1046B000E157FF4F91838083DE01AF56BF4FFE016C
:1046C000EF56FF4F80819181019711969C938E93B5
:1046D000FE01EF56FF4F808191810097D1F627C0F0
:1046E0008E010F561F4FFE01ED56FF4F6081718105
:1046F000828193810E944100DC01CB01F80191830A
:104700008083DE01A357BF4FFE01EF56FF4F80812C
:1047100091818D939C93FE01E357FF4F808191819E
:104720000197F1F7FE01E357FF4F9183808360917A
:10473000BB007091BC008091BD000E94E10BFE01A6
:10474000E757FF4F80E090E0A0E2B1E480839183DF
:10475000A283B3838E010B571F4FFE01E757FF4F14
:10476000608171818281938120E030E04AEF54E4DE
:104770000E941702DC01CB01F80180839183A283A0
:10478000B383FE01EB57FF4F60817181828193817A
:1047900020E030E040E85FE30E94A103882344F476
:1047A000FE01ED57FF4F81E090E09183808364C06C
:1047B000FE01EB57FF4F608171818281938120E080
:1047C0003FEF4FE757E40E94410318160CF043C037
:1047D000FE01E757FF4F608171818281938120E064
:1047E00030E040E251E40E941702DC01CB018E016F
:1047F0000D571F4FBC01CD010E944100DC01CB01D0
:10480000F801918380831FC0FE01EF57FF4F88ECB2
:1048100090E091838083FE01EF57FF4F808191816B
:104820000197F1F7FE01EF57FF4F91838083DE017F
:10483000AD57BF4FFE01ED57FF4F8081918101972A
:1048400011969C938E93FE01ED57FF4F80819181CD
:104850000097D1F627C08E010D571F4FFE01EB5771
:10486000FF4F60817181828193810E944100DC0150
:10487000CB01F80191838083DE01A158BF4FFE0177
:10488000ED57FF4F808191818D939C93FE01E158FC
:10489000FF4F808191810197F1F7FE01E158FF4FB1
:1048A000918380836091B8007091B9008091BA00C3
:1048B0000E94E10BFE01E558FF4F80E090E0A0E28E
:1048C000B1E480839183A283B3838E0109581F4F83
:1048D000FE01E558FF4F608171818281938120E064
:1048E00030E04AEF54E40E941702DC01CB01F801EA
:1048F00080839183A283B383FE01E958FF4F6081D7
:1049000071818281938120E030E040E85FE30E9482
:10491000A103882344F4FE01EB58FF4F81E090E0AF
:104920009183808364C0FE01E958FF4F60817181EB
:104930008281938120E03FEF4FE757E40E944103DB
:1049400018160CF043C0FE01E558FF4F60817181DD
:104950008281938120E030E040E251E40E9417021E
:10496000DC01CB018E010B581F4FBC01CD010E9411
:104970004100DC01CB01F801918380831FC0FE015F
:10498000ED58FF4F88EC90E091838083FE01ED5855
:10499000FF4F808191810197F1F7FE01ED58FF4FA4
:1049A00091838083DE01AB58BF4FFE01EB58FF4F70
:1049B00080819181019711969C938E93FE01EB5813
:1049C000FF4F808191810097D1F628C08E010B584E
:1049D0001F4FFE01E958FF4F6081718182819381F1
:1049E0000E944100DC01CB01F80191838083DE014C
:1049F000AF58BF4FFE01EB58FF4F80819181119658
:104A00009C938E93FE01EF58FF4F80819181019717
:104A1000F1F7FE01EF58FF4F91838083FE01EB55C4
:104A2000FE4F8081843311F00C9454166091B800CD
:104A30007091B9008091BA000E94CB0BFE01E3593E
:104A4000FF4F80E090E0A8E4B2E480839183A283EA
:104A5000B3838E0107591F4FFE01E359FF4F608159
:104A600071818281938120E030E04AEF54E40E941A
:104A70001702DC01CB01F80180839183A283B38309
:104A8000FE01E759FF4F608171818281938120E0AF
:104A900030E040E85FE30E94A103882344F4FE0174
:104AA000E959FF4F81E090E09183808364C0FE016B
:104AB000E759FF4F608171818281938120E03FEF50
:104AC0004FE757E40E94410318160CF043C0FE0163
:104AD000E359FF4F608171818281938120E030E052
:104AE00040E251E40E941702DC01CB018E0109591A
:104AF0001F4FBC01CD010E944100DC01CB01F80138
:104B0000918380831FC0FE01EB59FF4F88EC90E03A
:104B100091838083FE01EB59FF4F80819181019742
:104B2000F1F7FE01EB59FF4F91838083DE01A95914
:104B3000BF4FFE01E959FF4F808191810197119686
:104B40009C938E93FE01E959FF4F808191810097DC
:104B5000D1F627C08E0109591F4FFE01E759FF4FBB
:104B600060817181828193810E944100DC01CB01CF
:104B7000F80191838083DE01AD59BF4FFE01E959F1
:104B8000FF4F808191818D939C93FE01ED59FF4FE2
:104B9000808191810197F1F7FE01ED59FF4F9183DB
:104BA00080836091BB007091BC008091BD000E9429
:104BB000E10BFE01E15AFF4F80E090E0A8E4B2E48F
:104BC00080839183A283B3838E01055A1F4FFE0118
:104BD000E15AFF4F608171818281938120E030E052
:104BE0004AEF54E40E941702DC01CB01F8018083F4
:104BF0009183A283B383FE01E55AFF4F60817181E7
:104C00008281938120E030E040E85FE30E94A103CD
:104C1000882344F4FE01E75AFF4F81E090E091833E
:104C2000808364C0FE01E55AFF4F608171818281FB
:104C3000938120E03FEF4FE757E40E9441031816AD
:104C40000CF043C0FE01E15AFF4F60817181828107
:104C5000938120E030E040E251E40E941702DC0141
:104C6000CB018E01075A1F4FBC01CD010E944100AC
:104C7000DC01CB01F801918380831FC0FE01E95A5A
:104C8000FF4F88EC90E091838083FE01E95AFF4F4B
:104C9000808191810197F1F7FE01E95AFF4F9183DD
:104CA0008083DE01A75ABF4FFE01E75AFF4F808184
:104CB0009181019711969C938E93FE01E75AFF4FC5
:104CC000808191810097D1F627C08E01075A1F4F2E
:104CD000FE01E55AFF4F60817181828193810E94BC
:104CE0004100DC01CB01F80191838083DE01AB5AE6
:104CF000BF4FFE01E75AFF4F808191818D939C93B6
:104D0000FE01EB5AFF4F808191810197F1F7FE017F
:104D1000EB5AFF4F918380836091BE007091BF007A
:104D20008091C0000E94E10BFE01EF5AFF4F80E02E
:104D300090E0A8E4B2E480839183A283B3838E01E0
:104D4000035B1F4FFE01EF5AFF4F6081718182812B
:104D5000938120E030E04AEF54E40E941702DC0126
:104D6000CB01F80180839183A283B383FE01E35BCF
:104D7000FF4F608171818281938120E030E040E8C3
:104D80005FE30E94A103882344F4FE01E55BFF4F2B
:104D900081E090E09183808364C0FE01E35BFF4F7C
:104DA000608171818281938120E03FEF4FE757E47A
:104DB0000E94410318160CF043C0FE01EF5AFF4F4A
:104DC000608171818281938120E030E040E251E492
:104DD0000E941702DC01CB018E01055B1F4FBC0155
:104DE000CD010E944100DC01CB01F8019183808359
:104DF0001FC0FE01E75BFF4F88EC90E0918380834A
:104E0000FE01E75BFF4F808191810197F1F7FE0181
:104E1000E75BFF4F91838083DE01A55BBF4FFE01FF
:104E2000E55BFF4F80819181019711969C938E9352
:104E3000FE01E55BFF4F808191810097D1F627C08D
:104E40008E01055B1F4FFE01E35BFF4F60817181A7
:104E5000828193810E944100DC01CB01F8019183A2
:104E60008083DE01A95BBF4FFE01E55BFF4F8081C0
:104E700091818D939C93FE01E95BFF4F808191812D
:104E80000197F1F7FE01E95BFF4F91838083609109
:104E9000C1007091C2008091C3000E94CB0BFE0143
:104EA000ED5BFF4F80E090E0A0E2B1E4808391836E
:104EB000A283B3838E01015C1F4FFE01ED5BFF4FA8
:104EC000608171818281938120E030E04AEF54E477
:104ED0000E941702DC01CB01F80180839183A28339
:104EE000B383FE01FF96608171818281938120E00E
:104EF00030E040E85FE30E94A10388232CF481E0C6
:104F000090E09EAF8DAF46C0FE01FF96608171813B
:104F10008281938120E03FEF4FE757E40E944103F5
:104F2000181664F5FE01ED5BFF4F6081718182818F
:104F3000938120E030E040E251E40E941702DC015E
:104F4000CB01BC01CD010E944100DC01CB019EAF31
:104F50008DAF0FC088EC90E09CAF8BAF8BAD9CAD5C
:104F60000197F1F79CAF8BAF8DAD9EAD01979EAFD2
:104F70008DAF8DAD9EAD009769F716C0FE01FF960F
:104F800060817181828193810E944100DC01CB01AB
:104F90009EAF8DAF8DAD9EAD9AAF89AF89AD9AAD05
:104FA0000197F1F79AAF89AF6091B8007091B9009D
:104FB0008091BA000E94E10B80E090E0A0E2B1E4B1
:104FC0008DAB9EABAFABB8AF6DA97EA98FA998ADE5
:104FD00020E030E04AEF54E40E941702DC01CB01EC
:104FE00089AB9AABABABBCAB69A97AA98BA99CA9DD
:104FF00020E030E040E85FE30E94A10388232CF426
:1050000081E090E098AB8FA73FC069A97AA98BA9EE
:105010009CA920E03FEF4FE757E40E944103181698
:105020004CF56DA97EA98FA998AD20E030E040E253
:1050300051E40E941702DC01CB01BC01CD010E94AA
:105040004100DC01CB0198AB8FA70FC088EC90E04A
:105050009EA78DA78DA59EA50197F1F79EA78DA769
:105060008FA598A9019798AB8FA78FA598A90097AE
:1050700069F714C069A97AA98BA99CA90E9441006B
:10508000DC01CB0198AB8FA78FA598A99CA78BA714
:105090008BA59CA50197F1F79CA78BA76091BB00FE
:1050A0007091BC008091BD000E94CB0B80E090E02D
:1050B000A0E2B1E48FA398A7A9A7BAA76FA178A58A
:1050C00089A59AA520E030E04AEF54E40E94170237
:1050D000DC01CB018BA39CA3ADA3BEA36BA17CA1E0
:1050E0008DA19EA120E030E040E85FE30E94A10393
:1050F00088232CF481E090E09AA389A33FC06BA1A0
:105100007CA18DA19EA120E03FEF4FE757E40E94D4
:10511000410318164CF56FA178A589A59AA520E042
:1051200030E040E251E40E941702DC01CB01BC01F7
:10513000CD010E944100DC01CB019AA389A30FC0DD
:1051400088EC90E098A38F8F8F8D98A10197F1F74D
:1051500098A38F8F89A19AA101979AA389A389A166
:105160009AA1009769F714C06BA17CA18DA19EA1A3
:105170000E944100DC01CB019AA389A389A19AA1D5
:105180009E8F8D8F8D8D9E8D0197F1F79E8F8D8FC8
:105190006091BE007091BF008091C0000E94CB0B57
:1051A00080E090E0A0E2B1E4898F9A8FAB8FBC8F52
:1051B000698D7A8D8B8D9C8D20E030E04AEF54E430
:1051C0000E941702DC01CB018D8B9E8BAF8BB88FB9
:1051D0006D897E898F89988D20E030E040E85FE31B
:1051E0000E94A10388232CF481E090E09C8B8B8BA0
:1051F0003FC06D897E898F89988D20E03FEF4FE712
:1052000057E40E94410318164CF5698D7A8D8B8DF9
:105210009C8D20E030E040E251E40E941702DC0166
:10522000CB01BC01CD010E944100DC01CB019C8B74
:105230008B8B0FC088EC90E09A8B898B89899A8937
:105240000197F1F79A8B898B8B899C8901979C8BAD
:105250008B8B8B899C89009769F714C06D897E8937
:105260008F89988D0E944100DC01CB019C8B8B8B38
:105270008B899C89988B8F878F8598890197F1F707
:10528000988B8F876091C1007091C2008091C3009C
:105290000E94E10B80E090E0A0E2B1E48B879C8764
:1052A000AD87BE876B857C858D859E8520E030E04F
:1052B0004AEF54E40E941702DC01CB018F839887E8
:1052C000A987BA876F81788589859A8520E030E043
:1052D00040E85FE30E94A10388232CF481E090E082
:1052E0009E838D8340C06F81788589859A8520E073
:1052F0003FEF4FE757E40E944103181654F56B85C2
:105300007C858D859E8520E030E040E251E40E945E
:105310001702DC01CB01BC01CD010E944100DC0180
:10532000CB019E838D830FC088EC90E09C838B83A0
:105330008B819C810197F1F79C838B838D819E816A
:1053400001979E838D838D819E81009769F70C94D0
:1053500054166F81788589859A850E944100DC0109
:10536000CB019E838D838D819E819A8389838981E0
:105370009A810197F1F79A8389830C945416629F5E
:10538000D001739FF001829FE00DF11D649FE00D3D
:10539000F11D929FF00D839FF00D749FF00D659F9E
:1053A000F00D9927729FB00DE11DF91F639FB00D9D
:1053B000E11DF91FBD01CF0111240895A1E21A2EAC
:1053C000AA1BBB1BFD010DC0AA1FBB1FEE1FFF1FA9
:1053D000A217B307E407F50720F0A21BB30BE40BF9
:1053E000F50B661F771F881F991F1A9469F7609540
:1053F0007095809590959B01AC01BD01CF010895FA
:1054000097FB092E05260ED057FD04D0D7DF0AD012
:10541000001C38F450954095309521953F4F4F4FE3
:105420005F4F0895F6F790958095709561957F4F41
:105430008F4F9F4F08952F923F924F925F926F929E
:105440007F928F929F92AF92BF92CF92DF92EF9214
:10545000FF920F931F93CF93DF93CDB7DEB7CA1B95
:10546000DB0B0FB6F894DEBF0FBECDBF09942A88C0
:10547000398848885F846E847D848C849B84AA8468
:10548000B984C884DF80EE80FD800C811B81AA81F5
:10549000B981CE0FD11D0FB6F894DEBF0FBECDBFC0
:0854A000ED010895F894FFCF1F
:1054A80043686F6F736520746865206D6F6465006D
:1054B8006C69676874696E6720746865206C6564D8
:1054C80000312D544F472020322D4C545200332D9B
:1054D80052544C2020342D42696E67426F6E67002B
:1054E80000000000000000003738392F3435362A14
:1054F8003132332D63303D2B0200010201010202DB
:045508000102030198
:00000001FF
